:020000040800F2
:1000000068060020CD010008D5010008D7010008CE
:10001000D9010008DB010008DD0100080000000034
:10002000000000000000000000000000DF010008E8
:10003000E101000800000000E3010008E5010008FC
:10004000E7010008E7010008E7010008E7010008F0
:10005000E7010008E7010008C1020008E701000805
:10006000E90200081103000839030008E70100084D
:10007000E7010008E7010008E7010008E7010008C0
:10008000E7010008E7010008E7010008E7010008B0
:10009000E7010008E7010008E7010008E7010008A0
:1000A000E7010008E7010008E7010008E701000890
:1000B000E7010008E7010008E7010008E701000880
:1000C000E7010008E7010008E7010008E701000870
:1000D000E7010008E7010008E7010008E701000860
:1000E000E7010008E7010008E7010008E701000850
:1000F000E7010008E7010008E7010008E701000840
:10010000E7010008E7010008E7010008E70100082F
:10011000E7010008E7010008E7010008E70100081F
:10012000E7010008E7010008E7010008E70100080F
:1001300000F002F800F03AF80AA090E8000C8244BF
:100140008344AAF10107DA4501D100F02FF8AFF29C
:10015000090EBAE80F0013F0010F18BFFB1A43F0A5
:10016000010318477008000090080000103A24BFEF
:1001700078C878C1FAD8520724BF30C830C144BF0C
:1001800004680C607047000000230024002500264E
:10019000103A28BF78C1FBD8520728BF30C148BFEA
:1001A0000B6070471FB51FBD10B510BD00F031F8D2
:1001B0001146FFF7F7FF00F0E5FB00F04FF803B43E
:1001C000FFF7F2FF03BC00F057F800000948804732
:1001D00009480047FEE7FEE7FEE7FEE7FEE7FEE729
:1001E000FEE7FEE7FEE7FEE704480549054A064B41
:1001F00070470000D908000831010008680000209D
:1002000068060020680200206802002070477047DE
:100210007047754600F02CF8AE4605006946534617
:1002200020F00700854618B020B5FFF7DDFFBDE8D8
:1002300020404FF000064FF000074FF000084FF04D
:10024000000B21F00701AC46ACE8C009ACE8C009DE
:10025000ACE8C009ACE8C0098D46704710B504464B
:10026000AFF300802046BDE81040FFF7A8BF0000B4
:10027000004870470400002001491820ABBEFEE78B
:10028000260002007047000008B50121082000F098
:100290006DFA4FF48070ADF8000010208DF8030067
:1002A00003208DF802006946044800F0DDF84FF4A1
:1002B0008071024800F063F908BD0000000C0140A5
:1002C00010B5012000F052F8012805D1044800685B
:1002D000012801D103490860012000F041F810BD58
:1002E00000012142A081214210B5042000F03EF817
:1002F000012805D10448006810B9002003490860AE
:10030000042000F02DF810BD08012342A0812142F5
:1003100010B5082000F02AF8012805D1044800682B
:1003200010B9002003490860082000F019F810BD3A
:100330000C012342A081214210B5102000F016F8D4
:10034000012805D10448006810B90020034908605D
:10035000102000F005F810BD10012342A0812142B9
:100360000149086070470000140401400146002064
:100370000022074B1B6803EA0102054B14331B687C
:100380000B4013B10AB1012000E0002070470000CB
:1003900000040140002123498279002A3AD00A460C
:1003A000126803689A430B461A600A1D12680368B4
:1003B0009A430B1D1A60027911440A6803681A43B4
:1003C0000A60184A0832126803689A43154B0833CA
:1003D0001A601A1D126803689A43124B0C331A6094
:1003E0004279102A0ED11A1F126803681A430D4B66
:1003F00008331A601A1D126803681A43094B0C333C
:100400001A600DE00749427911440A6803681A43EB
:100410000A6005E0027911440A6803689A430A6099
:10042000704700000004014030B500228B071C0F0C
:100430000F2303FA04F20B4B8C1053F82430934330
:10044000084C8D1044F8253023468C1053F8243086
:100450008C07240F00FA04F42343024C8D1044F857
:10046000253030BD080001402DE9F041024600254D
:100470000026002000230024002791F803C00CF080
:100480000F0591F803C00CF0100CBCF1000F03D065
:1004900091F802C04CEA050591F800C0BCF1000FCC
:1004A00031D0146800202BE04FF0010C0CFA00F35F
:1004B000B1F800C00CEA03069E4220D183004FF041
:1004C0000F0C0CFA03F7BC4305FA03FC4CEA0404D6
:1004D00091F803C0BCF1280F06D14FF0010C0CFAC3
:1004E00000FCC2F814C00AE091F803C0BCF1480F48
:1004F00005D14FF0010C0CFA00FCC2F810C0401CF2
:100500000828D1D31460B1F800C0BCF1FF0F34DD6E
:10051000546800202EE000F1080C4FF0010808FAA2
:100520000CF3B1F800C00CEA03069E4221D183000F
:100530004FF00F0C0CFA03F7BC4305FA03FC4CEA2E
:10054000040491F803C0BCF1280F05D100F1080C98
:1005500008FA0CF8C2F8148091F803C0BCF1480FF7
:1005600007D100F1080C4FF0010808FA0CF8C2F8A6
:100570001080401C0828CED35460BDE8F081416152
:10058000704701617047000008B50121442000F068
:10059000EDF80120ADF8000028208DF80300694631
:1005A0000648FFF761FF1C20ADF8000048208DF8D9
:1005B000030069460248FFF757FF08BD00080140E5
:1005C0000018014008B50121482000F0CFF81020A4
:1005D0008DF803002020ADF8000003208DF8020004
:1005E00069460948FFF740FF20210748FFF7C9FF88
:1005F0002020ADF8000069460448FFF735FF2021B0
:100600000248FFF7BEFF08BD000C01400018014082
:100610000EB50121084600F0A9F800210846FFF7B1
:1006200003FF04210846FFF7FFFE03210420FFF724
:10063000FBFE02210420FFF7F7FE012000900020BE
:100640008DF8040008208DF8050001208DF80600C3
:100650006846FFF79FFE1C20009000208DF80400E4
:100660000C208DF8050001208DF806006846FFF784
:1006700091FE06208DF8080002208DF80900032065
:100680008DF80A0001208DF80B0002A800F02CF86C
:100690000A208DF8080002208DF809008DF80A0064
:1006A00001208DF80B0002A800F01EF809208DF83B
:1006B000080002208DF8090001208DF80A008DF84D
:1006C0000B0002A800F010F808208DF808000220A6
:1006D0008DF8090000208DF80A0001208DF80B002C
:1006E00002A800F001F80EBD70B5002100230F2212
:1006F000C47804B3154C246804F4E064C4F5E064E1
:10070000210AC1F10403CA40447804FA03F1847851
:100710001440214309010E4C0678A155047804F0D9
:100720001F050124AC4005786D11AD0005F1E025F1
:10073000C5F8004109E0047804F01F050124AC402D
:10074000044D0678761145F8264070BD0CED00E0AA
:1007500000E400E080E100E002490143024A116048
:10076000704700000000FA050CED00E029B1064AD0
:1007700092690243044B9A6104E0034A92698243FE
:10078000014B9A61704700000010024010B500F064
:1007900001F810BD0CB500200190009033480068AE
:1007A00040F480303149086000BF3048006800F4F0
:1007B000003000900198401C0190009818B90198F1
:1007C000B0F5A06FF1D12948006800F4003010B1F5
:1007D0000120009001E0002000900098012843D102
:1007E0002348006840F0100021490860084600686E
:1007F00020F0030008600846006840F0020008602E
:100800001A484068194948600846406848600846E8
:10081000406840F4806048600846406820F47C10DE
:1008200048600846406840F4E810486008460068A0
:1008300040F08070086000BF0C48006800F0007055
:100840000028F9D00948406820F0030007494860B3
:100850000846406840F00200486000BF0348406816
:1008600000F00C000828F9D10CBD00000010024077
:1008700000200240042808D14FF0E021096941F02E
:1008800004014FF0E022116107E04FF0E021096917
:1008900021F004014FF0E0221161704710B50446C9
:1008A0006FF00400FFF7E6FFE11704EB5171C1F3AD
:1008B000C701074A11701046007800EB4001C1EBF8
:1008C000C0104FF6FF7101EAC0000249088010BD58
:1008D000000000200200002010B51348006840F01E
:1008E00001001149086008464068104908400E4957
:1008F0004860084600680E4908400B4908600846F1
:10090000006820F4802008600846406820F4FE005B
:1009100048604FF41F008860FFF738FF4FF0006019
:100920000449086010BD0000001002400000FFF8FC
:10093000FFFFF6FE08ED00E00146114A12884A4327
:100940004FF0E0235A6100229A611A46126942F080
:1009500001021A6100BF4FF0E022106900F00102AD
:100960001AB100F48032002AF5D04FF0E02212696B
:1009700022F001024FF0E0231A6100229A617047D1
:100980000200002000244820FFF788FF4FF4A060F9
:10099000FFF7E2FEFFF716FEFFF776FCFFF7F4FD28
:1009A000FFF736FE12E0601CC4B2142094FBF0F195
:1009B00000FB114038B90648006808B9012000E082
:1009C0000020034908600A20FFF7B6FFEBE70000AC
:1009D00094812142F4090008000000200400000076
:1009E0006C010008F80900080400002064060000FB
:0809F00088010008000000006E
:0400000508000131BD
:00000001FF
